:1000000009308A0003290000FF00030E8301A100CC
:100010000A08A0008A010408A2007708A300780853
:10002000A4007908A5007A08A60003170D08031399
:10003000A70003170F080313A80003170C080313E6
:10004000A90003170E080313AA00831383120B1EC3
:100050002B288B1850288B1E2F280B195328220869
:1000600084002308F7002408F8002508F900260872
:10007000FA00270803178D000313280803178F00C1
:100080000313290803178C0003132A0803178E0093
:10009000031320088A00210E8300FF0E7F0E090043
:1000A0008A110A1256288A110A12AB2AC50A0319A4
:1000B000C60A8B108A110A122F288E30F700831679
:1000C0003C08F8003B08F900FA01F808031D722803
:1000D0007908F800F9010830F702F808031D7228C2
:1000E000F7017A280310F81B7928F90DF80DF703AA
:1000F0007228F8138312080083163B080319ED28B1
:10010000C3003F080319ED28C30703188E287F306A
:10011000C302031CED280319ED2892288130C30780
:100120000318ED284308F700F801F901FA013C082B
:10013000C700C7173D08C6003E08C5001830C300F9
:10014000C401451CBB284208FA07031CAD28F90A64
:10015000031DAD28F80A0319C4174108F907031C49
:10016000B428F80A0319C4174008BD00BD173D089C
:10017000F8070318C417C40DF80CF90CFA0CC70CD7
:10018000C60CC50C0310C30BA0280130F7070318D9
:10019000ED28F81BD228C70DFA0DF90DF80DF7035D
:1001A0000319ED28C71FE328FA0A031DE328F90AFB
:1001B000031DE328F80A031DE328F80CF90CFA0CD8
:1001C000F70A0319ED283C08C4004008C406C41F00
:1001D000EB28F817F128F813F128F701F801F901D5
:1001E000FA01831208008E30F70083163B08F702ED
:1001F0003C08F9003D08F800F917F70803190B2926
:100200000310F908031D0729F80803190B29F90C35
:10021000F80CF70B0029BC1F1229F809F909F80A94
:100220000319F90A83120800B630F700FA01F90140
:10023000F80183163D10BC1F2B293D14B909BA09DA
:10024000BB09BC09B90A031D2B29BA0A031D2B29B6
:10025000BB0A0319BC0A39083A043B043C04031DD9
:100260003329F70142290310F81B3F29B90DBA0DB4
:10027000BB0DBC0DFA0DF90DF80DF70B3329F81372
:100280003D18F817831208008030831C4A29831612
:10029000BE0683128316C301C4013A08C2003E0899
:1002A000C20639080319382AC100F7003D080319AE
:1002B000412AC1020319DD29031C9B293E08C700FE
:1002C000C7173F08C6004008C500C4010310C70C8B
:1002D000C60CC50CC40CC10B6529C21F722943147E
:1002E000552A431041104316BC30840083136A2AF8
:1002F0004312C21B8529411C9029C70CC60CC50C92
:10030000C40CF70A0319502A9029C71B932903101C
:10031000C40DC50DC60DC70DF7030319502A852955
:100320004317FD2943133A08C200C21F9929C71772
:10033000492AC713492A3D08C100F7003908C102FC
:100340003A08C700C7173B08C6003C08C500C401EF
:100350000310C70CC60CC50CC40CC10BA729C21FC7
:10036000B429C314552AC3104110C316C0308400E9
:1003700083136A2AC312C21BC729411CD229C70C86
:10038000C60CC50CC40CF70A0319502AD229C71B86
:10039000D5290310C40DC50DC60DC70DF7030319EC
:1003A000502AC729C317FD29C3133E08C200C21F24
:1003B000DB29C717492AC713492A3E08C700C717B0
:1003C0003F08C6004008C500C21FEA29C7134315ED
:1003D000552A4311C4014110BC30840083136A2A9A
:1003E000C21B132A3A08C200411CFD29C70CC60CC7
:1003F000C50CC40CF70A0319502AC41F0E2AC50ADB
:10040000031D0E2AC60A031D0E2AC70A031D0E2A43
:10041000C70CC60CC50CF70A0319502A431B9229B6
:10042000C31BD429322A8030C706C71F1B2A552A6E
:100430003E08C200282A3A08C200C708031D282A1D
:10044000C608031D282AC508031D282AF701492AC2
:10045000C71B322A0310C40DC50DC60DC70DF70BFF
:10046000282A502AC21F362AC717492AC713492AE1
:100470003D08F7003E08C7003F08C6004008C50019
:10048000492A3908F7003A08C7003B08C6003C086B
:10049000C5004708F8004608F9004508FA00882A10
:1004A000F701F801F901FA01882AC401C509C60952
:1004B000C709C409C40A031D632AC50A031D632AA8
:1004C000C60A0319C70A43187129C318B329431967
:1004D000E929182A0008C507031C742AC60A031D47
:1004E000742AC70A0319411484030008C607031CB1
:1004F0007C2AC70A0319411484030008801F803A2C
:10050000C70703184114431A7829C31ABA29F029D6
:100510008312080083163508B63CB500FA01360888
:10052000B900B6170310B60CB70CB80CFA0CF90CDE
:10053000F80CF70CB50B922AB91FA92AF709F8098C
:10054000F909FA09F70A0319F80A0319F90A03194C
:10055000FA0A831208003C308100CC0A4D084C0294
:10056000031C482C470845028316B5008312460831
:100570008316B60083124808031C480FC02AC32AFA
:100580008316B60283128316BC0183124D088316AC
:10059000BB0083125D20D7308316BA00A330B900A8
:1005A0007C30B8008230B7007A08BE007908BD0000
:1005B0007808BC007708BB0037080319A12BC300DB
:1005C0003B080319A12BC302031CEB2A7F30C3078E
:1005D0000318A12BF12A8130C302031CA12B03199C
:1005E000A12B4308F700F801F901FA01C20138080C
:1005F000C100C1173908C0003A08BF001930C30054
:100600003E08BF020318142B0130C0020318142B3C
:10061000C1020318142BC2020318142BC20AC10A08
:10062000C00A3E08BF07462B3D08C00203182F2B07
:100630000130C10203182F2BC20203182F2BC20A4C
:10064000C10A3D08C0073E08BF07031C462BC00A6D
:10065000031D462BC10A031D462BC20A462B3C082C
:100660008038C1020318452B0130C2020318452B04
:10067000C20A3C088038C1073D08C007031C232B71
:10068000C10A031D232BC20A232B7A14C30B492B47
:10069000542B0310BF0DC00DC10DC20D0310FA0D78
:1006A000F90DF80DC40D002B441C5C2B0310F80C45
:1006B000F90CFA0CC40C5F2BF7030319A12BC41B14
:1006C000882B0310BF0DC00DC10DC20D3E08BF0227
:1006D0000318742B0130C0020318742BC1020318D5
:1006E000742BC202031C972B3D08C00203187F2BFA
:1006F0000130C10203187F2BC202031C972B3C0858
:100700008038C1020318882B0130C202031C972BCA
:10071000FA0A031D972BF90A031D972BF80A031DEC
:10072000972BF70A0319A12BF80CF90CFA0C3808CF
:10073000C3003C08C306C31F9F2BF817A52BF81353
:10074000A52BF701F801F901FA017A08BA00790836
:10075000B9007808B8007708B7003608BC0035083B
:10076000BB0083125D207A088316BE007908BD00A5
:100770007808BC007708BB003A08C2003908C100FD
:100780003808C0003708BF0083127C207A0883161F
:10079000BE007908BD007808BC007708BB00831252
:1007A000F3207908CA007808C9004608C80045083F
:1007B000C70057088316BC00831256088316BB0077
:1007C000831255088316BA00831254088316B900A1
:1007D000831214217A088316BE007908BD007808B8
:1007E000BC007708BB00831269088316C20083121D
:1007F00068088316C100831267088316C00083123D
:1008000066088316BF0083127C207A088316B8001E
:100810007908B7007808B6007708B50083125D083C
:100820008316BC0083125C088316BB0083125B082E
:100830008316BA0083125A088316B9008312142152
:10084000831083163808BC003708BB003608BA008E
:100850003508B9007A08C0007908BF007808BE00E2
:100860007708BD00831244217A088316B8007908FE
:10087000B7007808B6007708B50083128A227A0894
:10088000DD007908DC007808DB007708DA00CC01AD
:100890000B118A110A122F280A10ED37F437721043
:1008A000F03B6D10BA126C3200000A10E131F43ADC
:1008B0006136203B6536EF31693A7910BA126C32F5
:1008C00000010A10F232E632F232EE316510F632F1
:1008D000EC37E334F43C201D253664000A106B38F5
:1008E000BA1266000A10EB34BA12AE1966000A108A
:1008F000F91E253200040A10F3306D38EC34EE3363
:10090000203AE936651D253300010A10F730693AAF
:1009100020336F392019F3326300F401F2010A30F9
:10092000F300F101F0016E086F04031D9B2C0030F1
:10093000F800F900BA2D7408F40A6E0784008313D6
:100940006F1883170008F50075082D3C031DB42CA3
:100950000130F2007408F40A6E07840083136F18E4
:1009600083170008F500C12C75082B3C031DC12C12
:100970007408F40A6E07840083136F188317000845
:10098000F50075082F3C0318AB2D7508393C031C86
:10099000AB2D7508303C031DED2C74086E078400E8
:1009A00083136F1883170008783C0319E12C74082F
:1009B0006E07840083136F1883170008583C031DCB
:1009C000ED2C1030F300F40A7408F40A6E0784006A
:1009D00083136F1883170008F50073080A3C031D82
:1009E000422D75082F3C0318412D7508393C031C16
:1009F000412DFC010A30FB007108FE007008FD006B
:100A00007C087E0680398316A100FC1F0C2DFB0993
:100A1000FC09FB0A0319FC0AFE1F132DFD09FE0940
:100A2000FD0A0319FE0A1030A000F701FA01FC0CC0
:100A3000FB0C031C212D7D08F7070318FA0A7E081A
:100A4000FA07FA0CF70CF90CF80CA00B172DA11FE4
:100A50002E2DF809F909F80A0319F90A3030750240
:100A60007807F0007908F1000318F10A7408F40A15
:100A700083126E07840083136F1883170008F50034
:100A8000F12CAB2D7308103C031DAB2D7508603C99
:100A90000318512D75087A3C031C512D7508DF3958
:100AA000522D7508F50075082F3C03185B2D75084D
:100AB000393C0318632D7508403C0318AB2D7508AD
:100AC000463C031CAB2D75082F3C0318802D750880
:100AD000393C031C802D700DFB00710DFC00FB0DDB
:100AE000FC0DFB0DFC0DFB0DFC0DF030FB0530305B
:100AF00075027B07F0007C08F1000318F10A952DC0
:100B0000700DFB00710DFC00FB0DFC0DFB0DFC0DD1
:100B1000FB0DFC0DF030FB05413075020A3E7B07F2
:100B2000F0007C08F1000318F10A7408F40A6E075B
:100B3000840083136F1883170008F500603C0318C6
:100B4000A82D75087A3C031CA82D7508DF39A92D3E
:100B50007508F500532D73080A3C031DB62D720B62
:100B6000B62DF009F109F00A0319F10A7008F8002E
:100B70007108F9008A150A12CA2978080319C52DC7
:100B800077088000840AF80BC02D8A150A12822A81
:100B90008E30F7006F08F8006E08F900FA01EF1FB9
:100BA000D62DF809F909F90A0319F80AF808031DFE
:100BB000E32D7908F800F9010830F702F808031D61
:100BC000E32DF701EC2D0310F81BEA2DF90DF80DBC
:100BD000F703E32DEF1FF8138A150A12AB2A6F30C3
:100BE0008400831300080319022E0630F800F70171
:100BF000F70BF82DF80BF72D7B30F700F70BFE2DD8
:100C0000800BF52D08000B08EF008B1383160317DC
:100C10008C170C140000000083120313EF1B8B17BA
:100C200003183C2E03170C087F390313EF0003173A
:100C30000D08F0000F08F10003136F080C1E1E2EA4
:100C40009900700803178D0071088F0003130B08BB
:100C5000F2008B13831603178C170C14000000008E
:100C6000F21F372E831203138B1783160317831279
:100C70000313EE0B3C2E582E03170C0D0E0D7F396F
:100C80000313EF0003170D08F0000F08F100031322
:100C90006F080C1E492E9900700803178D0071080B
:100CA0008F008D0A03198F0A03100313EE0B032E16
:100CB0000800F6010408F5007610831B7614EF1F78
:100CC000692EF517751EF50AEE09EF09EE0A0319EC
:100CD000EF0A6F0EF038F100F107E23EF200323E0B
:100CE000F4006F080F39F207F207F407E93EF3004A
:100CF000F307F3076E0E0F39F307F407F30DF40D46
:100D0000F409F40D6E080F39F407F10D0730F00007
:100D10000A30F407F303031C892EF307F203031CC4
:100D20008D2EF207F103031C912EF107F003031C33
:100D3000952E703084008313073075057513840376
:100D40007505031DAA2E751A840A751AAA2E20305D
:100D5000F700C72E840774300402031975170008C2
:100D6000F700031DBB2E751BBB2E751ACB2EF51974
:100D7000BB2E2030C62EF51FC32E2D30F700840366
:100D80007513F513C72EF51575123030F707770870
:100D90000C1EC82E9900840A751FAB2E08008318FC
:100DA000D42EB03084008313F701F801F901FA0161
:100DB0008316B001B101B201B3012F082E042D0436
:100DC0002C040319132F2030B4000310A80DA90D13
:100DD000AA0DAB0DB00DB10DB20DB30D2F0833023E
:100DE000031DFC2E2E083202031DFC2E2D0831029D
:100DF000031DFC2E2C083002031C0D2F2C08B00202
:100E00002D08031C2D0FB1022E08031C2E0FB20259
:100E10002F08031C2F0FB3020314F70DF80DF90D63
:100E2000FA0DB40BE52E30088000840A31088000EA
:100E3000840A32088000840A330880008312080084
:100E40007508F80174020318282F7408F700342F6E
:100E5000F7010830F600F40DF70D75087702031856
:100E6000F700F80DF60B2B2F080020306F1E3030E6
:100E7000F0006E08F700EE1F452FF709F70A770814
:100E8000EE002D30F000EF176F146E08F4006430A0
:100E9000F50020277708EE0030307807F1006E0863
:100EA000F4000A30F500202730307707F3003030A7
:100EB0007807F2007008F700303071020319642FD0
:100EC000EF14EF1B6F15782F7008F1002030F00041
:100ED000303072020319702F6F14EF1BEF14782F4C
:100EE000031D6F14031D782F7108F2002030F100EC
:100EF0006F197F2FEF18832F6F18872F8B2F700894
:100F00000C1E802F990071080C1E842F9900720806
:100F10000C1E882F990073080C1E8C2F99008A15BF
:100F20000A125C2C0B08EE008B13831603178C1728
:100F30000C140000000083120313EE1B8B17031721
:100F40000C087F390319E72F0313EE0003170D0870
:100F50000313EF0003170F08F00003136E080C1EB5
:100F6000AF2F99006F0803178D0070088F000313CF
:100F70000B08F1008B13831603178C170C14000059
:100F80000000F11FC82F831203138B17831603175A
:100F900083120C0D0E0D7F390319E72F0313EE009A
:100FA00003170D080313EF0003170F08F0000313D6
:100FB0006E080C1ED92F99006F0803178D0070085A
:100FC0008F008D0A03198F0A0313922F031703133F
:060FD0008A150A127E2CB6
:1010000004088316A0007208A20003193028831276
:10101000AB018B1BAB178B1371088316BE007008D6
:10102000BD0083126F088316BC0083126E088316FE
:10103000BB00C201C1012030C0008230BF008A1154
:1010400083127C208A15AB1B8B177A08F100790874
:10105000F0007808EF007708EE008316A20B07284F
:101060008312AB018B1BAB178B1371088316B8006F
:101070007008B70083126F088316B60083126E08DB
:101080008316B5008A1183128A228A15AB1B8B172F
:101090007A08F1007908F0007808EF007708EE0090
:1010A000F11F61288316A003A0168312EE09EF0931
:1010B000F009F109EE0A0319EF0A0319F00A0319FE
:1010C000F10A3B308316A7009A30A600CA30A5006B
:1010D000A4010A30A20072080319A00A83146E301A
:1010E000840083137108AB007008AA0083126F0894
:1010F0008316A90083126E088316A8002708AF0084
:101100002608AE002508AD002408AC008A11831221
:10111000CF268A157808F708031DA528720A8316BA
:101120002202031D95288312A52820080319A82848
:101130000F39220203199E280318E428A01BE42873
:10114000201BA8282030DD28831220308316A0051C
:10115000A01EB928A0127208031DA0037708A000E2
:101160002D3083120C1EB228990083162008F70038
:10117000A00172082202031DCA287708A0002E30A1
:1011800083120C1EC128990083162008F700203016
:10119000A00500303030A01EDD28A0127208031D0B
:1011A000A0037708A0002D3083120C1ED5289900CB
:1011B00083162008F700A0013030F7077708831264
:1011C0000C1EE0289900831683102708AB00260820
:1011D000AA002508A9002408A800AF01AE01AD01AE
:1011E0000A30AC008A118312CF268A157A0883163A
:1011F000A7007908A6007808A5007708A400A20B2C
:101200006E288312080003081F398300813083167B
:101210009900A6309800903083129800B201C60160
:10122000C501C801C701CA01C901CB01CC011430F5
:10123000CD00CD30E100CC30E0004C30DF007B3021
:10124000DE006F30E5001230E4000330E30075305B
:10125000E200FF30EA00EC01EB0183161F149F143B
:101260001F159F1107309C0083138312AC01AD0141
:1012700083160912831290010030F80092000030AA
:1012800083169200F030831297059D058316811313
:10129000C03083128B048B1083160108C0390738C5
:1012A00081003C30831281008B160B1683161F10B1
:1012B0009F101F159F111F1383121F139F17831653
:1012C0009F1383121F146A116A0883168700831202
:1012D00007110C3097000030F80006389200FF30FC
:1012E0008316920083129B01EA116A088316870015
:1012F000831287116A126A08831687008312071601
:10130000AB018B1BAB178B138316BC0183124D08EB
:101310008316BB008A1183125D208A15AB1B8B17C5
:10132000AB018B1BAB178B130A308316BE00D73073
:10133000BD002330BC007830BB007A08C2007908B9
:10134000C1007808C0007708BF008A1183127C2092
:101350008A15AB1B8B177A08E9007908E800780832
:10136000E7007708E6008C1E922A8C1EB5291A0821
:10137000ED006D08703C0319C5296D08693C03191F
:10138000C5296D08733C031D852AEF013330EE003B
:101390008A118D2C8A157908C4007808C3006D085D
:1013A000703C031D082AAB018B1BAB178B13440841
:1013B0008316BC00831243088316BB008A11831274
:1013C0005D208A15AB1B8B17AB018B1BAB178B13E7
:1013D0007A088316BE007908BD007808BC0077083B
:1013E000BB00CD30C200CC30C1004C30C0007B30DF
:1013F000BF008A1183127C208A15AB1B8B177A08D9
:10140000E1007908E0007808DF007708DE007A2A3A
:101410006D08693C031D412AAB018B1BAB178B1375
:1014200044088316BC00831243088316BB008A114C
:1014300083125D208A15AB1B8B17AB018B1BAB177F
:101440008B137A088316BE007908BD007808BC00AB
:101450007708BB006F30C2001230C1000330C000FB
:101460007530BF008A1183127C208A15AB1B8B1745
:101470007A08E5007908E4007808E3007708E200DC
:101480007A2A6D08733C031D7A2A4308CD00AB010C
:101490008B1BAB178B138316BC0183124D0883166D
:1014A000BB008A1183125D208A15AB1B8B17AB0121
:1014B0008B1BAB178B130A308316BE00D730BD00D1
:1014C0002330BC007830BB007A08C2007908C10024
:1014D0007808C0007708BF008A1183127C208A1523
:1014E000AB1B8B177A08E9007908E8007808E70059
:1014F0007708E600333084008313F7011030F800DA
:101500008A11BD2D8A15B201922A33303207840028
:1015100083136D088000B20A32080F3C0318922A28
:101520000F30B2000030F8001F08C73978049F0060
:101530001030F700F70B9A2A00001F151F199E2A7A
:101540001E08FA01CE007A08CF004F08EF004E08BF
:10155000EE008A11C82D8A15AB018B1BAB178B13BC
:101560007A088316BE007908BD007808BC007708A9
:10157000BB00E130C2007A30C1001C30C0008230B4
:10158000BF008A1183127C208A15AB1B8B17AB011D
:101590008B1BAB178B137A088316BE007908BD002E
:1015A0007808BC007708BB008A118312F3208A15E3
:1015B000AB1B8B177908D1007808D0004A08D300FC
:1015C0004908D20052085002F7005108FA005308A7
:1015D000031C530FFA027A08F800F901FA01F81F08
:1015E000F32AF903FA037A08D7007908D6007808B5
:1015F000D5007708D400AB018B1BAB178B135708B2
:101600008316BC00831256088316BB00831255084C
:101610008316BA00831254088316B9008A11831204
:1016200014218A15AB1B8B17AB018B1BAB178B13CC
:101630007A088316BE007908BD007808BC007708D8
:10164000BB00831261088316C200831260088316F0
:10165000C10083125F088316C00083125E088316E0
:10166000BF008A1183127C208A15AB1B8B177A0866
:10167000F1007908F0007808EF007708EE00AB0180
:101680008B1BAB178B135D088316BC0083125C08A1
:101690008316BB0083125B088316BA0083125A08B4
:1016A0008316B9008A11831214218A15AB1B8B177C
:1016B000AB018B1BAB178B137A088316BE0079081E
:1016C000BD007808BC007708BB008312650883164C
:1016D000C200831264088316C10083126308831654
:1016E000C000831262088316BF008A1183127C2017
:1016F0008A15AB1B8B178310AB018B1BAB178B139E
:1017000071088316BC007008BB0083126F08831633
:10171000BA0083126E088316B9007A08C0007908EF
:10172000BF007808BE007708BD008A1183124421EB
:101730008A15AB1B8B17AB018B1BAB178B137A086E
:101740008316BE007908BD007808BC007708BB008E
:101750008A118312F3208A15AB1B8B177908D900E5
:101760007808D800D91BBD2B5908033C0318BD2BA2
:101770000330D900FF30D800C12BD91FC12BD901AC
:10178000D8015908F9005808F800F90CF80CF90CC0
:10179000F80CF90C78089500F90C790C3039F70041
:1017A0001708CF39770497006430EF008A11EF25CE
:1017B0008A154C3003178D0004308F0003100D3054
:1017C0000313EE008A1103268A151030840059088D
:1017D000EF005808EE008A1159268A155530031774
:1017E0008D0004308F00031013300313EE008A11B4
:1017F00003268A15103084005308EF005208EE00CB
:101800008A1159268A15613003178D0004308F0024
:10181000031016300313EE008A1103268A151030C8
:1018200084005108EF005008EE008A1159268A15ED
:101830006E3003178D0004308F0003100530031342
:10184000EE008A1103268A15893084006108F100B0
:101850006008F0005F08EF005E08EE000230F20062
:101860000020723003178D0004308F000310053004
:101870000313EE008A1103268A1589308400650857
:10188000F1006408F0006308EF006208EE00033026
:10189000F2000020773003178D0004308F00031012
:1018A00004300313EE008A1103268A154D08EE005A
:1018B0001830EF008A11352F8A157B3003178D0001
:1018C00004308F00031010300313EE008A1103263A
:1018D0008A15893084006908F1006808F0006708FB
:1018E000EF006608EE000230F2000020853003179A
:1018F0008D0004308F008A110313922F8A1508304F
:10190000EE00FA30EF008A11EF258A15EE0B812CDC
:04191000B329630094
:02400E003A3F37
:00000001FF
;PIC16F877A
;CRC=F80C  CREATED="28-May-24 15:13"
